{
  "contractName": "RWD",
  "abi": [
    {
      "inputs": [],
      "stateMutability": "nonpayable",
      "type": "constructor"
    },
    {
      "anonymous": false,
      "inputs": [
        {
          "indexed": false,
          "internalType": "address",
          "name": "_owner",
          "type": "address"
        },
        {
          "indexed": true,
          "internalType": "address",
          "name": "_spender",
          "type": "address"
        },
        {
          "indexed": false,
          "internalType": "uint256",
          "name": "_value",
          "type": "uint256"
        }
      ],
      "name": "Approval",
      "type": "event"
    },
    {
      "anonymous": false,
      "inputs": [
        {
          "indexed": true,
          "internalType": "address",
          "name": "_from",
          "type": "address"
        },
        {
          "indexed": true,
          "internalType": "address",
          "name": "_to",
          "type": "address"
        },
        {
          "indexed": false,
          "internalType": "uint256",
          "name": "_value",
          "type": "uint256"
        }
      ],
      "name": "Transfer",
      "type": "event"
    },
    {
      "inputs": [
        {
          "internalType": "address",
          "name": "",
          "type": "address"
        },
        {
          "internalType": "address",
          "name": "",
          "type": "address"
        }
      ],
      "name": "allowance",
      "outputs": [
        {
          "internalType": "uint256",
          "name": "",
          "type": "uint256"
        }
      ],
      "stateMutability": "view",
      "type": "function",
      "constant": true
    },
    {
      "inputs": [
        {
          "internalType": "address",
          "name": "",
          "type": "address"
        }
      ],
      "name": "balanceOf",
      "outputs": [
        {
          "internalType": "uint256",
          "name": "",
          "type": "uint256"
        }
      ],
      "stateMutability": "view",
      "type": "function",
      "constant": true
    },
    {
      "inputs": [],
      "name": "name",
      "outputs": [
        {
          "internalType": "string",
          "name": "",
          "type": "string"
        }
      ],
      "stateMutability": "view",
      "type": "function",
      "constant": true
    },
    {
      "inputs": [],
      "name": "symbol",
      "outputs": [
        {
          "internalType": "string",
          "name": "",
          "type": "string"
        }
      ],
      "stateMutability": "view",
      "type": "function",
      "constant": true
    },
    {
      "inputs": [],
      "name": "totalSupply",
      "outputs": [
        {
          "internalType": "uint256",
          "name": "",
          "type": "uint256"
        }
      ],
      "stateMutability": "view",
      "type": "function",
      "constant": true
    },
    {
      "inputs": [
        {
          "internalType": "address",
          "name": "_to",
          "type": "address"
        },
        {
          "internalType": "uint256",
          "name": "_value",
          "type": "uint256"
        }
      ],
      "name": "transfer",
      "outputs": [
        {
          "internalType": "bool",
          "name": "success",
          "type": "bool"
        }
      ],
      "stateMutability": "nonpayable",
      "type": "function"
    },
    {
      "inputs": [
        {
          "internalType": "address",
          "name": "_spender",
          "type": "address"
        },
        {
          "internalType": "uint256",
          "name": "_value",
          "type": "uint256"
        }
      ],
      "name": "approve",
      "outputs": [
        {
          "internalType": "bool",
          "name": "success",
          "type": "bool"
        }
      ],
      "stateMutability": "nonpayable",
      "type": "function"
    },
    {
      "inputs": [
        {
          "internalType": "address",
          "name": "_from",
          "type": "address"
        },
        {
          "internalType": "address",
          "name": "_to",
          "type": "address"
        },
        {
          "internalType": "uint256",
          "name": "_value",
          "type": "uint256"
        }
      ],
      "name": "transferFrom",
      "outputs": [
        {
          "internalType": "bool",
          "name": "success",
          "type": "bool"
        }
      ],
      "stateMutability": "nonpayable",
      "type": "function"
    }
  ],
  "bytecode": "0x60806040526040518060400160405280600c81526020017f52657761726420546f6b656e0000000000000000000000000000000000000000815250600090805190602001906200005192919062000124565b506040518060400160405280600381526020017f5257440000000000000000000000000000000000000000000000000000000000815250600190805190602001906200009f92919062000124565b5069d3c21bcecceda10000006002556012600360006101000a81548160ff021916908360ff160217905550348015620000d757600080fd5b50600254600460003373ffffffffffffffffffffffffffffffffffffffff1673ffffffffffffffffffffffffffffffffffffffff1681526020019081526020016000208190555062000238565b828054620001329062000203565b90600052602060002090601f016020900481019282620001565760008555620001a2565b82601f106200017157805160ff1916838001178555620001a2565b82800160010185558215620001a2579182015b82811115620001a157825182559160200191906001019062000184565b5b509050620001b19190620001b5565b5090565b5b80821115620001d0576000816000905550600101620001b6565b5090565b7f4e487b7100000000000000000000000000000000000000000000000000000000600052602260045260246000fd5b600060028204905060018216806200021c57607f821691505b602082108103620002325762000231620001d4565b5b50919050565b610c5a80620002486000396000f3fe608060405234801561001057600080fd5b50600436106100a5576000357c01000000000000000000000000000000000000000000000000000000009004806370a082311161007857806370a082311461014657806395d89b4114610176578063a9059cbb14610194578063dd62ed3e146101c4576100a5565b806306fdde03146100aa578063095ea7b3146100c857806318160ddd146100f857806323b872dd14610116575b600080fd5b6100b26101f4565b6040516100bf91906108b8565b60405180910390f35b6100e260048036038101906100dd9190610973565b610282565b6040516100ef91906109ce565b60405180910390f35b61010061035f565b60405161010d91906109f8565b60405180910390f35b610130600480360381019061012b9190610a13565b610365565b60405161013d91906109ce565b60405180910390f35b610160600480360381019061015b9190610a66565b6105eb565b60405161016d91906109f8565b60405180910390f35b61017e610603565b60405161018b91906108b8565b60405180910390f35b6101ae60048036038101906101a99190610973565b610691565b6040516101bb91906109ce565b60405180910390f35b6101de60048036038101906101d99190610a93565b6107fa565b6040516101eb91906109f8565b60405180910390f35b6000805461020190610b02565b80601f016020809104026020016040519081016040528092919081815260200182805461022d90610b02565b801561027a5780601f1061024f5761010080835404028352916020019161027a565b820191906000526020600020905b81548152906001019060200180831161025d57829003601f168201915b505050505081565b600081600560003373ffffffffffffffffffffffffffffffffffffffff1673ffffffffffffffffffffffffffffffffffffffff16815260200190815260200160002060008573ffffffffffffffffffffffffffffffffffffffff1673ffffffffffffffffffffffffffffffffffffffff168152602001908152602001600020819055508273ffffffffffffffffffffffffffffffffffffffff167f8c5be1e5ebec7d5bd14f71427d1e84f3dd0314c0f7b2291e5b200ac8c7c3b925338460405161034d929190610b42565b60405180910390a26001905092915050565b60025481565b600081600560008673ffffffffffffffffffffffffffffffffffffffff1673ffffffffffffffffffffffffffffffffffffffff16815260200190815260200160002060003373ffffffffffffffffffffffffffffffffffffffff1673ffffffffffffffffffffffffffffffffffffffff1681526020019081526020016000205410156103f057600080fd5b81600460008673ffffffffffffffffffffffffffffffffffffffff1673ffffffffffffffffffffffffffffffffffffffff16815260200190815260200160002054101561043c57600080fd5b81600560008673ffffffffffffffffffffffffffffffffffffffff1673ffffffffffffffffffffffffffffffffffffffff16815260200190815260200160002060003373ffffffffffffffffffffffffffffffffffffffff1673ffffffffffffffffffffffffffffffffffffffff16815260200190815260200160002060008282546104c89190610b9a565b9250508190555081600460008673ffffffffffffffffffffffffffffffffffffffff1673ffffffffffffffffffffffffffffffffffffffff168152602001908152602001600020600082825461051e9190610b9a565b9250508190555081600460008573ffffffffffffffffffffffffffffffffffffffff1673ffffffffffffffffffffffffffffffffffffffff16815260200190815260200160002060008282546105749190610bce565b925050819055508273ffffffffffffffffffffffffffffffffffffffff168473ffffffffffffffffffffffffffffffffffffffff167fddf252ad1be2c89b69c2b068fc378daa952ba7f163c4a11628f55a4df523b3ef846040516105d891906109f8565b60405180910390a3600190509392505050565b60046020528060005260406000206000915090505481565b6001805461061090610b02565b80601f016020809104026020016040519081016040528092919081815260200182805461063c90610b02565b80156106895780601f1061065e57610100808354040283529160200191610689565b820191906000526020600020905b81548152906001019060200180831161066c57829003601f168201915b505050505081565b600081600460003373ffffffffffffffffffffffffffffffffffffffff1673ffffffffffffffffffffffffffffffffffffffff1681526020019081526020016000205410156106df57600080fd5b81600460003373ffffffffffffffffffffffffffffffffffffffff1673ffffffffffffffffffffffffffffffffffffffff168152602001908152602001600020600082825461072e9190610b9a565b9250508190555081600460008573ffffffffffffffffffffffffffffffffffffffff1673ffffffffffffffffffffffffffffffffffffffff16815260200190815260200160002060008282546107849190610bce565b925050819055508273ffffffffffffffffffffffffffffffffffffffff163373ffffffffffffffffffffffffffffffffffffffff167fddf252ad1be2c89b69c2b068fc378daa952ba7f163c4a11628f55a4df523b3ef846040516107e891906109f8565b60405180910390a36001905092915050565b6005602052816000526040600020602052806000526040600020600091509150505481565b600081519050919050565b600082825260208201905092915050565b60005b8381101561085957808201518184015260208101905061083e565b83811115610868576000848401525b50505050565b6000601f19601f8301169050919050565b600061088a8261081f565b610894818561082a565b93506108a481856020860161083b565b6108ad8161086e565b840191505092915050565b600060208201905081810360008301526108d2818461087f565b905092915050565b600080fd5b600073ffffffffffffffffffffffffffffffffffffffff82169050919050565b600061090a826108df565b9050919050565b61091a816108ff565b811461092557600080fd5b50565b60008135905061093781610911565b92915050565b6000819050919050565b6109508161093d565b811461095b57600080fd5b50565b60008135905061096d81610947565b92915050565b6000806040838503121561098a576109896108da565b5b600061099885828601610928565b92505060206109a98582860161095e565b9150509250929050565b60008115159050919050565b6109c8816109b3565b82525050565b60006020820190506109e360008301846109bf565b92915050565b6109f28161093d565b82525050565b6000602082019050610a0d60008301846109e9565b92915050565b600080600060608486031215610a2c57610a2b6108da565b5b6000610a3a86828701610928565b9350506020610a4b86828701610928565b9250506040610a5c8682870161095e565b9150509250925092565b600060208284031215610a7c57610a7b6108da565b5b6000610a8a84828501610928565b91505092915050565b60008060408385031215610aaa57610aa96108da565b5b6000610ab885828601610928565b9250506020610ac985828601610928565b9150509250929050565b7f4e487b7100000000000000000000000000000000000000000000000000000000600052602260045260246000fd5b60006002820490506001821680610b1a57607f821691505b602082108103610b2d57610b2c610ad3565b5b50919050565b610b3c816108ff565b82525050565b6000604082019050610b576000830185610b33565b610b6460208301846109e9565b9392505050565b7f4e487b7100000000000000000000000000000000000000000000000000000000600052601160045260246000fd5b6000610ba58261093d565b9150610bb08361093d565b925082821015610bc357610bc2610b6b565b5b828203905092915050565b6000610bd98261093d565b9150610be48361093d565b9250827fffffffffffffffffffffffffffffffffffffffffffffffffffffffffffffffff03821115610c1957610c18610b6b565b5b82820190509291505056fea2646970667358221220e31bf03cec6946e872a0cdbbb526b958c6386a8430c5dac67699c1c0958f66eb64736f6c634300080e0033",
  "immutableReferences": {},
  "source": "pragma solidity >=0.4.22 <0.9.0;\r\n\r\ncontract RWD {\r\n  string public name = \"Reward Token\";\r\n  string public symbol = \"RWD\";\r\n  uint256 public totalSupply = 1000000000000000000000000;   // 1 million tokens\r\n  uint8 decimals = 18;\r\n\r\n  mapping(address => uint256) public balanceOf;\r\n\r\n  mapping(address => mapping(address => uint256)) public allowance;\r\n\r\n  event Transfer(\r\n    address indexed _from,\r\n    address indexed _to,\r\n    uint256 _value\r\n  );\r\n\r\n  event Approval(\r\n    address _owner,\r\n    address indexed _spender,\r\n    uint256 _value\r\n  );\r\n\r\n  constructor() {\r\n    balanceOf[msg.sender] = totalSupply;  \r\n  }\r\n\r\n  // transfer by the owner of the account\r\n  function transfer(address _to, uint256 _value) public returns (bool success) {\r\n    require(balanceOf[msg.sender] >= _value);\r\n    balanceOf[msg.sender] -= _value;\r\n    balanceOf[_to] += _value;\r\n    emit Transfer(msg.sender, _to, _value);\r\n    return true;\r\n  }\r\n\r\n  // approve spender to spend his tether\r\n  function approve(address _spender, uint256 _value) public returns (bool success) {\r\n    allowance[msg.sender][_spender] = _value;\r\n    emit Approval(msg.sender, _spender, _value);\r\n    return true;\r\n  }\r\n\r\n  // transfer by third party\r\n  function transferFrom(address _from, address _to, uint256 _value) public returns (bool success) {\r\n    require(allowance[_from][msg.sender] >= _value);\r\n    require(balanceOf[_from] >= _value);\r\n    allowance[_from][msg.sender] -= _value;\r\n    balanceOf[_from] -= _value;\r\n    balanceOf[_to] += _value;\r\n    emit Transfer(_from, _to, _value);\r\n    return true;\r\n  }\r\n}",
  "sourcePath": "C:\\Users\\Administrator\\Desktop\\stake\\defi-staking-app-starter\\defi-staking-app-starter\\src\\contracts\\RWD.sol",
  "compiler": {
    "name": "solc",
    "version": "0.8.14+commit.80d49f37.Emscripten.clang"
  },
  "schemaVersion": "3.4.7",
  "updatedAt": "2022-06-17T02:19:33.946Z",
  "networkType": "ethereum",
  "devdoc": {
    "kind": "dev",
    "methods": {},
    "version": 1
  },
  "userdoc": {
    "kind": "user",
    "methods": {},
    "version": 1
  }
}